{
  "_format": "hh-sol-artifact-1",
  "contractName": "BallotFactory",
  "sourceName": "contracts/BallotFactory.sol",
  "abi": [
    {
      "anonymous": false,
      "inputs": [
        {
          "indexed": true,
          "internalType": "uint256",
          "name": "ballotId",
          "type": "uint256"
        }
      ],
      "name": "BallotClosed",
      "type": "event"
    },
    {
      "anonymous": false,
      "inputs": [
        {
          "indexed": true,
          "internalType": "uint256",
          "name": "ballotId",
          "type": "uint256"
        },
        {
          "indexed": false,
          "internalType": "string[]",
          "name": "proposalNames",
          "type": "string[]"
        }
      ],
      "name": "BallotCreated",
      "type": "event"
    },
    {
      "anonymous": false,
      "inputs": [
        {
          "indexed": true,
          "internalType": "uint256",
          "name": "ballotId",
          "type": "uint256"
        },
        {
          "indexed": true,
          "internalType": "address",
          "name": "voter",
          "type": "address"
        },
        {
          "indexed": true,
          "internalType": "uint256",
          "name": "proposalId",
          "type": "uint256"
        }
      ],
      "name": "VoteCast",
      "type": "event"
    },
    {
      "inputs": [],
      "name": "ballotCount",
      "outputs": [
        {
          "internalType": "uint256",
          "name": "",
          "type": "uint256"
        }
      ],
      "stateMutability": "view",
      "type": "function"
    },
    {
      "inputs": [
        {
          "internalType": "uint256",
          "name": "",
          "type": "uint256"
        }
      ],
      "name": "ballots",
      "outputs": [
        {
          "internalType": "bytes32",
          "name": "merkleRoot",
          "type": "bytes32"
        },
        {
          "internalType": "bool",
          "name": "active",
          "type": "bool"
        }
      ],
      "stateMutability": "view",
      "type": "function"
    },
    {
      "inputs": [
        {
          "internalType": "uint256",
          "name": "ballotId",
          "type": "uint256"
        }
      ],
      "name": "closeBallot",
      "outputs": [],
      "stateMutability": "nonpayable",
      "type": "function"
    },
    {
      "inputs": [
        {
          "internalType": "bytes32",
          "name": "_merkleRoot",
          "type": "bytes32"
        },
        {
          "internalType": "string[]",
          "name": "_proposalNames",
          "type": "string[]"
        }
      ],
      "name": "createBallot",
      "outputs": [
        {
          "internalType": "uint256",
          "name": "",
          "type": "uint256"
        }
      ],
      "stateMutability": "nonpayable",
      "type": "function"
    },
    {
      "inputs": [
        {
          "internalType": "uint256",
          "name": "ballotId",
          "type": "uint256"
        }
      ],
      "name": "getProposalNames",
      "outputs": [
        {
          "internalType": "string[]",
          "name": "",
          "type": "string[]"
        }
      ],
      "stateMutability": "view",
      "type": "function"
    },
    {
      "inputs": [
        {
          "internalType": "uint256",
          "name": "ballotId",
          "type": "uint256"
        },
        {
          "internalType": "uint256",
          "name": "proposalId",
          "type": "uint256"
        }
      ],
      "name": "getVoteCount",
      "outputs": [
        {
          "internalType": "uint256",
          "name": "",
          "type": "uint256"
        }
      ],
      "stateMutability": "view",
      "type": "function"
    },
    {
      "inputs": [
        {
          "internalType": "uint256",
          "name": "ballotId",
          "type": "uint256"
        },
        {
          "internalType": "address",
          "name": "voter",
          "type": "address"
        }
      ],
      "name": "hasVoted",
      "outputs": [
        {
          "internalType": "bool",
          "name": "",
          "type": "bool"
        }
      ],
      "stateMutability": "view",
      "type": "function"
    },
    {
      "inputs": [
        {
          "internalType": "uint256",
          "name": "ballotId",
          "type": "uint256"
        },
        {
          "internalType": "bytes32",
          "name": "newMerkleRoot",
          "type": "bytes32"
        }
      ],
      "name": "updateMerkleRoot",
      "outputs": [],
      "stateMutability": "nonpayable",
      "type": "function"
    },
    {
      "inputs": [
        {
          "internalType": "uint256",
          "name": "ballotId",
          "type": "uint256"
        },
        {
          "internalType": "uint256",
          "name": "proposalId",
          "type": "uint256"
        },
        {
          "internalType": "bytes32[]",
          "name": "merkleProof",
          "type": "bytes32[]"
        }
      ],
      "name": "vote",
      "outputs": [],
      "stateMutability": "nonpayable",
      "type": "function"
    }
  ],
  "bytecode": "0x608060405234801561001057600080fd5b506118db806100206000396000f3fe608060405234801561001057600080fd5b50600436106100935760003560e01c8063c003003211610066578063c003003214610145578063c728e4cd14610163578063d045f1e414610193578063de2e19a0146101af578063f1e33115146101df57610093565b80631bc08f481461009857806331fa2b79146100c857806343859632146100e45780635c632b3814610114575b600080fd5b6100b260048036038101906100ad9190610aea565b6101fb565b6040516100bf9190610c69565b60405180910390f35b6100e260048036038101906100dd9190610cf0565b61032d565b005b6100fe60048036038101906100f99190610dc2565b61063c565b60405161010b9190610e1d565b60405180910390f35b61012e60048036038101906101299190610aea565b6106ea565b60405161013c929190610e51565b60405180910390f35b61014d61071b565b60405161015a9190610e89565b60405180910390f35b61017d60048036038101906101789190610f26565b610721565b60405161018a9190610e89565b60405180910390f35b6101ad60048036038101906101a89190610aea565b610888565b005b6101c960048036038101906101c49190610f86565b61092a565b6040516101d69190610e89565b60405180910390f35b6101f960048036038101906101f49190610fc6565b61099f565b005b60606001548210610241576040517f08c379a000000000000000000000000000000000000000000000000000000000815260040161023890611063565b60405180910390fd5b600080838152602001908152602001600020600101805480602002602001604051908101604052809291908181526020016000905b82821015610322578382906000526020600020018054610295906110b2565b80601f01602080910402602001604051908101604052809291908181526020018280546102c1906110b2565b801561030e5780601f106102e35761010080835404028352916020019161030e565b820191906000526020600020905b8154815290600101906020018083116102f157829003601f168201915b505050505081526020019060010190610276565b505050509050919050565b6001548410610371576040517f08c379a000000000000000000000000000000000000000000000000000000000815260040161036890611063565b60405180910390fd5b600080600086815260200190815260200160002090508060040160009054906101000a900460ff166103d8576040517f08c379a00000000000000000000000000000000000000000000000000000000081526004016103cf9061112f565b60405180910390fd5b80600101805490508410610421576040517f08c379a00000000000000000000000000000000000000000000000000000000081526004016104189061119b565b60405180910390fd5b8060030160003373ffffffffffffffffffffffffffffffffffffffff1673ffffffffffffffffffffffffffffffffffffffff16815260200190815260200160002060009054906101000a900460ff16156104b0576040517f08c379a00000000000000000000000000000000000000000000000000000000081526004016104a790611207565b60405180910390fd5b6000336040516020016104c3919061126f565b60405160208183030381529060405280519060200120905061052b848480806020026020016040519081016040528093929190818152602001838360200280828437600081840152601f19601f82011690508083019250505050505050836000015483610a01565b61056a576040517f08c379a0000000000000000000000000000000000000000000000000000000008152600401610561906112d6565b60405180910390fd5b816002016000868152602001908152602001600020600081548092919061059090611325565b919050555060018260030160003373ffffffffffffffffffffffffffffffffffffffff1673ffffffffffffffffffffffffffffffffffffffff16815260200190815260200160002060006101000a81548160ff021916908315150217905550843373ffffffffffffffffffffffffffffffffffffffff16877f2acce567deca3aabf56327adbb4524bd5318936eaefa69e3a5208ffda0cfec0960405160405180910390a4505050505050565b60006001548310610682576040517f08c379a000000000000000000000000000000000000000000000000000000000815260040161067990611063565b60405180910390fd5b60008084815260200190815260200160002060030160008373ffffffffffffffffffffffffffffffffffffffff1673ffffffffffffffffffffffffffffffffffffffff16815260200190815260200160002060009054906101000a900460ff16905092915050565b60006020528060005260406000206000915090508060000154908060040160009054906101000a900460ff16905082565b60015481565b6000808383905011610768576040517f08c379a000000000000000000000000000000000000000000000000000000000815260040161075f906113b9565b60405180910390fd5b600060015490506000806000838152602001908152602001600020905085816000018190555060018160040160006101000a81548160ff02191690831515021790555060005b8585905081101561082957816001018686838181106107d0576107cf6113d9565b5b90506020028101906107e29190611417565b9091806001815401808255809150506001900390600052602060002001600090919290919290919290919250918261081b929190611660565b5080806001019150506107ae565b50817f38042816bb4c208fa19b541cfd037cbb7324eac3406b71950570ba4d5f5c1a1e868660405161085c929190611881565b60405180910390a26001600081548092919061087790611325565b919050555081925050509392505050565b60015481106108cc576040517f08c379a00000000000000000000000000000000000000000000000000000000081526004016108c390611063565b60405180910390fd5b600080600083815260200190815260200160002060040160006101000a81548160ff021916908315150217905550807fc23c99c8cb2423f58e6b41cb38b8a0ae54e8f244e1bd3c122e97ed36a96c512860405160405180910390a250565b60006001548310610970576040517f08c379a000000000000000000000000000000000000000000000000000000000815260040161096790611063565b60405180910390fd5b600080848152602001908152602001600020600201600083815260200190815260200160002054905092915050565b60015482106109e3576040517f08c379a00000000000000000000000000000000000000000000000000000000081526004016109da90611063565b60405180910390fd5b80600080848152602001908152602001600020600001819055505050565b600082610a0e8584610a18565b1490509392505050565b60008082905060005b8451811015610a5d57610a4e82868381518110610a4157610a406113d9565b5b6020026020010151610a68565b91508080600101915050610a21565b508091505092915050565b6000818310610a8057610a7b8284610a93565b610a8b565b610a8a8383610a93565b5b905092915050565b600082600052816020526040600020905092915050565b600080fd5b600080fd5b6000819050919050565b610ac781610ab4565b8114610ad257600080fd5b50565b600081359050610ae481610abe565b92915050565b600060208284031215610b0057610aff610aaa565b5b6000610b0e84828501610ad5565b91505092915050565b600081519050919050565b600082825260208201905092915050565b6000819050602082019050919050565b600081519050919050565b600082825260208201905092915050565b60005b83811015610b7d578082015181840152602081019050610b62565b60008484015250505050565b6000601f19601f8301169050919050565b6000610ba582610b43565b610baf8185610b4e565b9350610bbf818560208601610b5f565b610bc881610b89565b840191505092915050565b6000610bdf8383610b9a565b905092915050565b6000602082019050919050565b6000610bff82610b17565b610c098185610b22565b935083602082028501610c1b85610b33565b8060005b85811015610c575784840389528151610c388582610bd3565b9450610c4383610be7565b925060208a01995050600181019050610c1f565b50829750879550505050505092915050565b60006020820190508181036000830152610c838184610bf4565b905092915050565b600080fd5b600080fd5b600080fd5b60008083601f840112610cb057610caf610c8b565b5b8235905067ffffffffffffffff811115610ccd57610ccc610c90565b5b602083019150836020820283011115610ce957610ce8610c95565b5b9250929050565b60008060008060608587031215610d0a57610d09610aaa565b5b6000610d1887828801610ad5565b9450506020610d2987828801610ad5565b935050604085013567ffffffffffffffff811115610d4a57610d49610aaf565b5b610d5687828801610c9a565b925092505092959194509250565b600073ffffffffffffffffffffffffffffffffffffffff82169050919050565b6000610d8f82610d64565b9050919050565b610d9f81610d84565b8114610daa57600080fd5b50565b600081359050610dbc81610d96565b92915050565b60008060408385031215610dd957610dd8610aaa565b5b6000610de785828601610ad5565b9250506020610df885828601610dad565b9150509250929050565b60008115159050919050565b610e1781610e02565b82525050565b6000602082019050610e326000830184610e0e565b92915050565b6000819050919050565b610e4b81610e38565b82525050565b6000604082019050610e666000830185610e42565b610e736020830184610e0e565b9392505050565b610e8381610ab4565b82525050565b6000602082019050610e9e6000830184610e7a565b92915050565b610ead81610e38565b8114610eb857600080fd5b50565b600081359050610eca81610ea4565b92915050565b60008083601f840112610ee657610ee5610c8b565b5b8235905067ffffffffffffffff811115610f0357610f02610c90565b5b602083019150836020820283011115610f1f57610f1e610c95565b5b9250929050565b600080600060408486031215610f3f57610f3e610aaa565b5b6000610f4d86828701610ebb565b935050602084013567ffffffffffffffff811115610f6e57610f6d610aaf565b5b610f7a86828701610ed0565b92509250509250925092565b60008060408385031215610f9d57610f9c610aaa565b5b6000610fab85828601610ad5565b9250506020610fbc85828601610ad5565b9150509250929050565b60008060408385031215610fdd57610fdc610aaa565b5b6000610feb85828601610ad5565b9250506020610ffc85828601610ebb565b9150509250929050565b600082825260208201905092915050565b7f42616c6c6f7420646f6573206e6f742065786973740000000000000000000000600082015250565b600061104d601583611006565b915061105882611017565b602082019050919050565b6000602082019050818103600083015261107c81611040565b9050919050565b7f4e487b7100000000000000000000000000000000000000000000000000000000600052602260045260246000fd5b600060028204905060018216806110ca57607f821691505b6020821081036110dd576110dc611083565b5b50919050565b7f42616c6c6f74206973206e6f7420616374697665000000000000000000000000600082015250565b6000611119601483611006565b9150611124826110e3565b602082019050919050565b600060208201905081810360008301526111488161110c565b9050919050565b7f496e76616c69642070726f706f73616c00000000000000000000000000000000600082015250565b6000611185601083611006565b91506111908261114f565b602082019050919050565b600060208201905081810360008301526111b481611178565b9050919050565b7f416c726561647920766f74656420696e20746869732062616c6c6f7400000000600082015250565b60006111f1601c83611006565b91506111fc826111bb565b602082019050919050565b60006020820190508181036000830152611220816111e4565b9050919050565b60008160601b9050919050565b600061123f82611227565b9050919050565b600061125182611234565b9050919050565b61126961126482610d84565b611246565b82525050565b600061127b8284611258565b60148201915081905092915050565b7f496e76616c69642070726f6f662c206e6f7420696e2077686974656c69737400600082015250565b60006112c0601f83611006565b91506112cb8261128a565b602082019050919050565b600060208201905081810360008301526112ef816112b3565b9050919050565b7f4e487b7100000000000000000000000000000000000000000000000000000000600052601160045260246000fd5b600061133082610ab4565b91507fffffffffffffffffffffffffffffffffffffffffffffffffffffffffffffffff8203611362576113616112f6565b5b600182019050919050565b7f4e6f2070726f706f73616c732070726f76696465640000000000000000000000600082015250565b60006113a3601583611006565b91506113ae8261136d565b602082019050919050565b600060208201905081810360008301526113d281611396565b9050919050565b7f4e487b7100000000000000000000000000000000000000000000000000000000600052603260045260246000fd5b600080fd5b600080fd5b600080fd5b6000808335600160200384360303811261143457611433611408565b5b80840192508235915067ffffffffffffffff8211156114565761145561140d565b5b60208301925060018202360383131561147257611471611412565b5b509250929050565b600082905092915050565b7f4e487b7100000000000000000000000000000000000000000000000000000000600052604160045260246000fd5b60008190508160005260206000209050919050565b60006020601f8301049050919050565b600082821b905092915050565b6000600883026115167fffffffffffffffffffffffffffffffffffffffffffffffffffffffffffffffff826114d9565b61152086836114d9565b95508019841693508086168417925050509392505050565b6000819050919050565b600061155d61155861155384610ab4565b611538565b610ab4565b9050919050565b6000819050919050565b61157783611542565b61158b61158382611564565b8484546114e6565b825550505050565b600090565b6115a0611593565b6115ab81848461156e565b505050565b5b818110156115cf576115c4600082611598565b6001810190506115b1565b5050565b601f821115611614576115e5816114b4565b6115ee846114c9565b810160208510156115fd578190505b611611611609856114c9565b8301826115b0565b50505b505050565b600082821c905092915050565b600061163760001984600802611619565b1980831691505092915050565b60006116508383611626565b9150826002028217905092915050565b61166a838361147a565b67ffffffffffffffff81111561168357611682611485565b5b61168d82546110b2565b6116988282856115d3565b6000601f8311600181146116c757600084156116b5578287013590505b6116bf8582611644565b865550611727565b601f1984166116d5866114b4565b60005b828110156116fd578489013582556001820191506020850194506020810190506116d8565b8683101561171a5784890135611716601f891682611626565b8355505b6001600288020188555050505b50505050505050565b6000819050919050565b82818337600083830152505050565b60006117558385610b4e565b935061176283858461173a565b61176b83610b89565b840190509392505050565b6000611783848484611749565b90509392505050565b600080fd5b600080fd5b600080fd5b600080833560016020038436030381126117b8576117b7611796565b5b83810192508235915060208301925067ffffffffffffffff8211156117e0576117df61178c565b5b6001820236038313156117f6576117f5611791565b5b509250929050565b6000602082019050919050565b60006118178385610b22565b93508360208402850161182984611730565b8060005b8781101561186f578484038952611844828461179b565b61184f868284611776565b955061185a846117fe565b935060208b019a50505060018101905061182d565b50829750879450505050509392505050565b6000602082019050818103600083015261189c81848661180b565b9050939250505056fea26469706673582212206eff11feb4c0019d6b3aafc58702886d622f264308f8aaebf44f6de3e1d9553564736f6c63430008180033",
  "linkReferences": {},
  "deployedLinkReferences": {}
}